:020000040800F2
:1000000000500020F16A0008F1660008F36600085D
:10001000F5660008F7660008F966000800000000B1
:10002000000000000000000000000000FB66000867
:10003000FD66000800000000FF6600080167000878
:10004000396B0008396B0008396B0008396B000800
:10005000396B0008396B0008396B0008396B0008F0
:10006000396B0008396B0008396B00080967000814
:100070001967000829670008396B0008396B000808
:10008000396B0008396B000839670008396B0008C4
:10009000396B0008396B0008396B0008396B0008B0
:1000A000396B0008396B0008396B0008396B0008A0
:1000B000396B000849670008396B00085967000868
:1000C00069670008396B0008396B0008396B000854
:1000D000396B0008396B0008396B00087967000834
:1000E000396B0008396B0008396B0008000000000C
:1000F0000000000000000000000000000000000000
:0C01000000000000000000005FF808F1A3
:10010C0010B5054C237833B9044B13B10448AFF345
:10011C0000800123237010BD74000020000000003B
:10012C00E473000808B5034B1BB103490348AFF354
:10013C00008008BD0000000078000020E473000877
:10014C00034613F8012B002AFBD1181A013870470B
:10015C0010B504460E4B18784FF47A73B3FBF0F3DA
:10016C000C4A1068B0FBF3F000F076FA68B90F2C6B
:10017C0001D901200AE0002221464FF0FF3000F0A7
:10018C002BFA054B1C60002000E0012010BD00BFC5
:10019C00000000200C0000200400002008B5074AD5
:1001AC00136843F010031360032000F003FA0020DF
:1001BC00FFF7CEFF06F074FA002008BD00200240C5
:1001CC00034A1168034B1B780B441360704700BF44
:1001DC00B400002000000020014B1868704700BFDD
:1001EC00B400002038B50446FFF7F6FF0546B4F11D
:1001FC00FF3F02D0044B1B781C44FFF7EDFF401B64
:10020C00A042FAD338BD00BF0000002070477047F1
:10021C0010B5044603685A6812F0200F18D01A68FB
:10022C0012F0020F14D0826A12F0100F03D1826AFE
:10023C0042F4007282629A6802F46022B2F5602F76
:10024C0038D02046FFF7E2FF23686FF012021A60E5
:10025C0023685A6812F0800F22D01A6812F0040F2B
:10026C001ED0A26A12F0100F03D1A26A42F40052FF
:10027C00A2629A6802F4E042B2F5E04F31D05A68BB
:10028C0012F4806F05D19A6802F46022B2F5602FE7
:10029C0024D0204600F08CF923686FF00C021A6011
:1002AC0023685A6812F0400F03D01B6813F0010F3B
:1002BC0028D110BDE268002AC3D15A6822F020026E
:1002CC005A60A36A23F48073A362A36A13F4805F59
:1002DC00B7D1A36A43F00103A362B2E7E268002A34
:1002EC00D7D15A6822F080025A60A36A23F4805353
:1002FC00A362A36A13F4807FCBD1A36A43F00103FA
:10030C00A362C6E7A36A43F48033A3622046FFF7D7
:10031C007EFF23686FF001021A60CAE730B482B026
:10032C000023019390F82430012B00F08B800246BF
:10033C00012380F824304B68062B29D80568686B9C
:10034C0003EB8303053B1F249C4020EA04000C684C
:10035C0004FA03F303436B630B68092B38D9156854
:10036C00E86803EB43031E3B07249C4020EA04008F
:10037C008C6804FA03F30343EB600B68103B012B0E
:10038C0034D90020002382F8243002B030BC7047EE
:10039C000C2B0ED80568286B03EB8303233B1F241F
:1003AC009C4020EA04000C6804FA03F303432B631B
:1003BC00D2E70568E86A03EB8303413B1F249C40AA
:1003CC0020EA04000C6804FA03F30343EB62C3E76E
:1003DC001568286903EB430307249C4020EA0400BA
:1003EC008C6804FA03F303432B61C6E713681648C1
:1003FC00834205D0936A43F0200393620120C1E746
:10040C00986810F4000F1BD1986840F400009860B5
:10041C000B68102B01D00020B4E70C4B1B680C4967
:10042C00A1FB03139B0C03EB83035900019102E026
:10043C00019B013B0193019B002BF9D10020A1E70B
:10044C0000209FE70220A0E7002401400C000020C0
:10045C0083DE1B4338B503689A6812F0010F01D193
:10046C00002038BD04469A6822F001029A60FFF71A
:10047C00B3FE054623689B6813F0010F0ED0FFF7FF
:10048C00ABFE401B0228F5D9A36A43F01003A3620C
:10049C00E36A43F00103E3620120E2E70020E0E7B6
:1004AC0000287FD038B50446836A002B33D0204611
:1004BC00FFF7D0FFA36A13F010036DD100286BD1A6
:1004CC00A26A22F4885222F0020242F00202A262D4
:1004DC006268E1690A43E56842EA4502A168B1F540
:1004EC00807F21D001291CD0616901291FD025688A
:1004FC00696821F469410B436B6021688D682A4B54
:10050C002B4013438B60A368B3F5807F20D0012B65
:10051C001ED000211FE0C36280F8243005F0DAFA07
:10052C00C5E74FF48073DFE74FF48073DCE735B930
:10053C00A169013943EA413343F40063D7E7A16A67
:10054C0041F02001A162E16A41F00101E162CEE7D4
:10055C002369013B19052568EB6A23F470030B43EF
:10056C00EB6223689968114B0B409A420BD0A36A3B
:10057C0023F0120343F01003A362E36A43F0010378
:10058C00E36201200DE00023E362A36A23F003037E
:10059C0043F00103A36204E0A36A43F01003A362D7
:1005AC00012038BD01207047FDF7E1FFFE0E1FFF53
:1005BC0070470000074AD36823F4E0631B041B0C4C
:1005CC00000200F4E060184340F0BF6040F40030DB
:1005DC00D060704700ED00E030B4174BDB68C3F31C
:1005EC000223C3F10704042C28BF04241D1D062D6F
:1005FC0018D9033B4FF0FF3505FA04F421EA040146
:10060C00994005FA03F322EA0303194300280BDB94
:10061C000901C9B200F1604000F5614080F8001397
:10062C0030BC70470023E5E700F00F000901C9B2A8
:10063C00024B1954F4E700BF00ED00E014ED00E0AC
:10064C0000F01F02400901239340024A42F8203077
:10065C00704700BF00E100E00138B0F1807F0AD2A2
:10066C00064B5860064AF02182F82310002098604F
:10067C0007221A6070470120704700BF10E000E0AD
:10068C0000ED00E070B4066CC56B0124B4406C60E6
:10069C00046863604368102B05D003689960036895
:1006AC00DA6070BC704703689A600368D960F8E739
:1006BC0060B310B402460168154B0B441548A0FBFF
:1006CC0003031B099B001364134BD363022382F8AF
:1006DC002130086820F47F5020F030005368946873
:1006EC002343D468234314692343546923439469F3
:1006FC002343D469234303430B60002090630123FD
:10070C0082F8213082F8200010BC7047012070471D
:10071C00F8FFFDBFCDCCCCCC0000024038B590F832
:10072C002040012C32D0012480F8204090F8214048
:10073C00012C04D0002380F82030022038BD044660
:10074C00022084F821000020A0632568286820F08E
:10075C00010028602046FFF795FFE36A5BB1226831
:10076C00136843F00E0313602268136843F001030F
:10077C0013600020E2E72268136823F0040313607F
:10078C002268136843F00A031360EDE70220D5E7F3
:10079C0008B590F82130022B03D004238363012089
:1007AC0008BD0268136823F00E0313600268136817
:1007BC0023F0010313600368194A934214D01432D6
:1007CC0093421FD0143293421ED0143293421ED047
:1007DC00143293421ED01432934202D04FF08072E6
:1007EC0003E04FF4801200E001220E4B5A6001230B
:1007FC0080F82130002380F82030436B6BB1984790
:10080C000020CDE71022F0E74FF48072EDE74FF4B3
:10081C008052EAE74FF48032E7E70020C0E700BFE0
:10082C00080002400000024038B5C36B1A68046827
:10083C002568016C04238B40134235D015F0040F4E
:10084C0032D0236813F0200F03D1236823F0040364
:10085C0023600368434A934214D01432934218D055
:10086C001432934217D01432934217D0143293425D
:10087C0017D01432934202D04FF0806203E04FF451
:10088C00800200E00422384B5A60C36A03B19847D7
:10089C0038BD4022F7E74FF48062F4E74FF4804212
:1008AC00F1E74FF48022EEE702238B4013423CD059
:1008BC0015F0020F39D0236813F0200F06D12368EE
:1008CC0023F00A032360012380F821300368254AB2
:1008DC00934214D0143293421CD0143293421BD046
:1008EC00143293421BD0143293421BD014329342D5
:1008FC0002D04FF0007203E04FF4001200E002222D
:10090C00194B5A60002380F82030836A002BBFD02B
:10091C009847BDE72022F3E74FF40072F0E74FF45D
:10092C000052EDE74FF40032EAE7082303FA01F135
:10093C001142ADD015F0080FAAD0236823F00E0396
:10094C002360026CC16B012303FA02F24A608363D9
:10095C0080F82130002380F82030036B002B97D0D7
:10096C00984795E70800024000000240F0B482B0BE
:10097C0000263546A1E0002C59D0012C00D1CE68C0
:10098C00FF2B68D88446FF2B68D8AC00DCF800201D
:10099C000F27A74022EA070206FA04F42243CCF8F8
:1009AC0000204A6812F0805F00F086805E4A9469ED
:1009BC0044F001049461926902F001020192019ADF
:1009CC00AC08A71C594A52F8272005F00307BF00B2
:1009DC004FF00F0C0CFA07FC22EA0C0C544A904214
:1009EC0042D002F5806290427FD002F58062904244
:1009FC007DD002F58062904234D0042235E04D4F18
:100A0C00BC4214D00BD94C4FBC4210D007F58037E8
:100A1C00BC420CD0A7F58017BC42B1D107E0A7F5BA
:100A2C008017BC4203D007F58037BC42A8D18C6834
:100A3C007CB1012C08D042610826A1E7CE680836AB
:100A4C009EE7CE680C369BE70261082698E70026E5
:100A5C0096E7042694E700F1040C94E7A5F108044A
:100A6C00A40093E7032200E00022BA4042EA0C0201
:100A7C0002342E4F47F824204A6812F4803F38D0B5
:100A8C002E4C22681A4322604A6812F4003F36D07A
:100A9C002A4C62681A4362604A6812F4801F34D090
:100AAC00264CA2681A43A2604A6812F4001F32D086
:100ABC00224CE2681343E36001350F2D31D801223B
:100ACC00AA400B6813409A42F6D14C68122CB8D04D
:100ADC0095D8022CB2D07FF64EAF032CB7D0112C88
:100AEC007FF44EAFCE6804364AE70122BDE70222FE
:100AFC00BBE7124C226822EA03022260C4E70F4CC7
:100B0C00626822EA03026260C6E70C4CA26822EA21
:100B1C000302A260C8E7094CE26822EA0303E3601F
:100B2C00CAE702B0F0BC7047001002400000014060
:100B3C0000080140000021100000311000040140A9
:100B4C00F0B400240EE000F1040C15E0A4F108064A
:100B5C00B70014E0032700E0002707FA02F2B242C4
:100B6C003ED0013431FA04F351D00123A3400B40A1
:100B7C00F7D0FF2BE7D88446FF2BE7D8A700DCF88B
:100B8C0000200F2505FA07F622EA06020426BE40CD
:100B9C003243CCF80020C268DB431A40C2604FEAF3
:100BAC00940C0CF102061B4A52F8266004F0030266
:100BBC00920095402E40184FB842CDD007F5806773
:100BCC00B84209D007F58067B84207D007F58067AF
:100BDC00B842BFD00427C0E70127BEE70227BCE715
:100BEC000C4F0CF1020257F8226026EA050547F873
:100BFC0022500A4A15681D40156055681D40556005
:100C0C0095681D409560D5682B40D360A9E7F0BC72
:100C1C00704700BF00000140000801400004014083
:100C2C0012B909040161704701617047C3685940EA
:100C3C00C160704790F83E30DBB2402B13D0036993
:100C4C00B3F5804F1ED0036D002B2DD0036D012BFF
:100C5C0033D1436CC3F3C813026803F0060343F0AB
:100C6C00F103136129E0036D2BB9436C026803F0A7
:100C7C00FE03136121E0436C026843F00103DBB215
:100C8C0013611AE090F83D30DBB2212B06D0436C97
:100C9C00026843F00103DBB213610EE0436C02689F
:100CAC0003F0FE03136108E0436CC3F3C81302683E
:100CBC0003F0060343F0F003136100207047436C0C
:100CCC000268DBB213610020704710B48DB090F84D
:100CDC003E30DAB2C16A046B90F83D30DBB2222BA5
:100CEC000BD000230B9303685A690B929B690B93EF
:100CFC000B9B00200DB010BC7047036D0BB9402A44
:100D0C0017D0036D1BB90369B3F5404F19D0438D50
:100D1C009BB2002B25D1039303685A6903929A69FD
:100D2C000392039A1A6842F400721A600023036556
:100D3C00DFE7019303685A6901929B690193019B58
:100D4C00D7E70023029303685A6902929A690292C8
:100D5C00029A1A6842F480721A60036D01330365BB
:100D6C00C7E7438D9BB2012B1AD0438D9BB2022B4C
:100D7C006BD00268136843F48063136003685A688D
:100D8C0012F4006F03D05A6842F480525A60002368
:100D9C000A9303685A690A929B690A930A9BC5E7EE
:100DAC0011F5803F16D004293DD008293BD0122CD8
:100DBC0039D0C36A022B30D00268136823F48063E5
:100DCC0013600023069303685A6906929B69069385
:100DDC00069BABE70268136823F480631360036817
:100DEC005A6812F4006F0CD01A6822F480621A60F0
:100DFC000023049303685A6904929B690493049B2F
:100E0C0094E7002205925A6905929A690592059A0F
:100E1C001A6842F400721A6088E70268136843F497
:100E2C0080631360CDE70268136823F4806313605A
:100E3C000023079303685A6907929A690792079AE5
:100E4C001A6842F400721A6070E7C36A022B1BD056
:100E5C000268136843F4006313600023089303686B
:100E6C005A6908929A690892089A1A6822F4806260
:100E7C001A6003685A6812F4006F3FF457AF5A684F
:100E8C0042F480525A6051E70268136843F480635D
:100E9C0013600023099303685A6909929B690993AB
:100EAC00099BE6E7438D9BB24BB1436A5A1C4262E5
:100EBC0002681B781361438D013B9BB24385002074
:100ECC007047438D9BB24BB103681A69436A591C36
:100EDC0041621A70438D013B9BB2438500207047E1
:100EEC0003685A6912F4806F0DD06FF480625A61F6
:100EFC000423036400230363202280F83D2080F840
:100F0C003C300120704700207047F8B506460C466F
:100F1C0017461D461EE02DB1FFF75EF9069BC01A61
:100F2C00A84217D900233363202286F83D2086F887
:100F3C003E3086F83C3003201AE033685B6924EAC3
:100F4C0003039BB2B3FA83F35B099F420FD1B5F154
:100F5C00FF3FE0D1C4F30743012BEED033689B690C
:100F6C0024EA03039BB2B3FA83F35B09EDE7002099
:100F7C00F8BDF8B504460D4616461F4632E01A6811
:100F8C0042F400721A6023686FF480625A61042381
:100F9C00236400232363202284F83D2084F83C3012
:100FAC0001202DE026B1FFF717F9C01BB04219D96B
:100FBC0000232363202284F83D2084F83C30032056
:100FCC001EE023685B6925EA03039BB2003318BF5C
:100FDC000123A3B123685A6912F4806FCFD1B6F103
:100FEC00FF3FDFD1C5F30743012BEAD023689B6990
:100FFC0025EA03039BB2003318BF0123E9E7002065
:10100C00F8BD70B504460D46164623685B6913F0AF
:10101C00800F19D12046FFF763FFB8B9B5F1FF3F38
:10102C00F3D025B1FFF7D8F8801BA842EDD9236C7B
:10103C0043F02003236400232363202284F83D2003
:10104C0084F83C30032000E0002070BD0120FCE758
:10105C002DE9F04184B004460E46174698460B9D88
:10106C000268136843F48073136000950A9B002296
:10107C004FF00111FFF749FF002847D1236806F014
:10108C00FE061E612B460A9A26492046FFF771FF81
:10109C0020B1236C042B3ED1012338E000230393B1
:1010AC0023685A6903929B690393039B2A460A9906
:1010BC002046FFF7A6FF034648B1236C042B2CD126
:1010CC002268136843F40073136001231FE0B8F126
:1010DC00010F13D023683A0A1A612A460A9920464E
:1010EC00FFF78FFF034668B1236C042B17D12268DE
:1010FC00136843F400731360012308E02268FFB205
:10110C00176104E02268FFB2176100E00323184660
:10111C0004B0BDE8F0810323F9E70323F7E70323C9
:10112C00F5E700BF020001002DE9F04184B0044650
:10113C000E46174698460B9D0268136843F480636D
:10114C0013600268136843F48073136000950A9B64
:10115C0000224FF00111FFF7D8FE002874D1F6B22F
:10116C00236806F0FE021A612B460A9A3F49204674
:10117C00FFF7FFFE20B1236C042B6AD1012364E03E
:10118C000023039323685A6903929B690393039B7F
:10119C002A460A992046FFF734FF48B1236C042BEA
:1011AC0059D12268136843F40073136001234CE097
:1011BC00B8F1010F12D12368FFB21F612A460A99B8
:1011CC002046FFF71EFF00B3236C042B47D1226887
:1011DC00136843F400731360012336E023683A0A62
:1011EC001A612A460A992046FFF70BFF48B1236C77
:1011FC00042B32D12268136843F40073136001236B
:10120C0023E02368FFB21F61D8E72268136843F418
:10121C008073136000950A9B00224FF00111204649
:10122C00FFF773FEE8B9236846F001061E612B46F2
:10123C000A9A0E492046FFF79CFE034628B1236C00
:10124C00042B10D1012300E00323184604B0BDE8A1
:10125C00F0810323F9E70323F7E70323F5E70323DF
:10126C00F3E70323F1E70323EFE700BF02000100DC
:10127C0070B504460D46164623685B6913F0040FDF
:10128C0019D12046FFF72CFEB8B9B5F1FF3FF3D0CA
:10129C0025B1FEF7A1FF801BA842EDD9236C43F0CA
:1012AC002003236400232363202284F83D2084F848
:1012BC003C30032000E0002070BD0120FCE770B53D
:1012CC0005460C4616462B685A6912F0400F22D17F
:1012DC005A6912F0100F11D124B1FEF77DFF801B5B
:1012EC00A042F0D92B6C43F020032B64202385F80B
:1012FC003D30002385F83C30032070BD6FF01002A8
:10130C005A6100232B642B63202285F83D2085F83D
:10131C003C300120F1E70020EFE70000002800F04E
:10132C00A28038B5044690F83D30002B4FD02423D2
:10133C0084F83D302268136823F00103136001F038
:10134C00C9FB62684A4B9A4246D84A4B98428CBFBA
:10135C0000230123002B40F08880474BA3FB002384
:10136C009B0C226853606168414A91423AD8013320
:10137C002268136261683E4B99423DD8431E490076
:10138C00B3FBF1F30133C3F30B03042B38BF04237A
:10139C002268D361E369216A22680B4313602369D5
:1013AC00E16822680B4393606369A16922680B436F
:1013BC00D3602268136843F001031360002020649B
:1013CC00202384F83D30206384F83E0038BD80F83B
:1013DC003C3004F0ABFCAAE7284B98428CBF0023AE
:1013EC000123B7E74FF4967202FB03F3244AA2FBE6
:1013FC0003239B090133BBE7A368BBB9421E01EB76
:10140C004105B2FBF5F20132C2F30B02B2FA82F2E1
:10141C00520932BBC3B9013801EB4103B0FBF3F302
:10142C000133C3F30B0343F40043B1E7421E01EB5A
:10143C00810505EB8505B2FBF5F20132C2F30B0217
:10144C00B2FA82F25209E4E7013801EB810303EBB3
:10145C008303B0FBF3F30133C3F30B0343F44043B7
:10146C0096E7012394E7012070470120AEE700BF07
:10147C00A08601007F841E0083DE1B43FF083D0015
:10148C00D34D62102DE9F04182B004460E4617464A
:10149C009846FEF7A1FE94F83D30DBB2202B04D029
:1014AC000223184602B0BDE8F081054600901923CE
:1014BC00012251492046FFF728FD002840F0938077
:1014CC0094F83C30012B00F09080012384F83C30E0
:1014DC0023681A6812F0010F03D11A6842F0010256
:1014EC001A602268136823F400631360212384F8C4
:1014FC003D30402384F83E3000232364089B636214
:10150C00BDF8243063853D4BE362638D23850195E3
:10151C000A9B009343463A4631462046FFF798FD16
:10152C00B0B1236C042B04D1002384F83C3001238C
:10153C00B7E7002384F83C300323B2E7236C042B79
:10154C0055D12268136843F4007313600123A8E794
:10155C00238D002B28D02A460A992046FFF751FDEF
:10156C000028EBD1636A5A1C626222681B781361F3
:10157C00238D013B9BB22385628D013A92B2628529
:10158C002268516911F0040FE2D0002BE0D0636A9D
:10159C00591C61621B781361238D013B2385638D7C
:1015AC00013B9BB26385D3E72A460A992046FFF795
:1015BC005FFE034648B1236C042B1AD122681368D2
:1015CC0043F40073136001236BE721680A6842F44B
:1015DC0000720A60202284F83D20002284F83E200C
:1015EC0084F83C205DE702235BE7022359E70323E1
:1015FC0057E7032355E700BF020010000000FFFF70
:10160C002DE9F04186B004460E4617469846FEF783
:10161C00E3FD94F83D30DBB2202B04D0022630469B
:10162C0006B0BDE8F08105460090192301229149CE
:10163C002046FFF76AFC002840F0578194F83C30B4
:10164C00012B00F05481012384F83C3023681A6884
:10165C0012F0010F03D11A6842F001021A602268DD
:10166C00136823F400631360222384F83D30402375
:10167C0084F83E30002323640C9B6362BDF8343045
:10168C0063857D4BE362638D238501950E9B0093EF
:10169C0043463A4631462046FFF746FD064660B1C2
:1016AC00236C042B04D1002384F83C300126B6E7CC
:1016BC00002384F83C300326B1E7238D5BB90293F9
:1016CC0023685A6902929A690292029A1A6842F441
:1016DC0000721A607FE0012B0FD0022B21D0226800
:1016EC00136843F4806313600023059323685A69DD
:1016FC0005929B690593059B6DE02268136823F4A2
:10170C008063136072B60023039323685A690392B3
:10171C009A690392039A1A6842F400721A6062B6CC
:10172C0059E02268136843F40063136072B6002317
:10173C00049323685A6904929A690492049A1A6869
:10174C0022F480621A6062B645E02A460E99204661
:10175C00FFF7B5FD68B923681A69636A591C6162A1
:10176C001A70238D013B2385638D013B9BB26385EE
:10177C0031E0236C202B01D0012650E703264EE7E5
:10178C0000950E9B00223D492046FFF7BEFB00282A
:10179C0040F0AF8072B62268136843F40073136094
:1017AC0023681A69636A591C61621A70238D013BA4
:1017BC002385638D013B9BB2638562B623681A69EE
:1017CC00636A591C61621A70238D013B2385638DFA
:1017DC00013B9BB26385238D002B7DD0032B4FD80F
:1017EC00012BB2D0022BCBD000950E9B00222349AB
:1017FC002046FFF78AFB00287DD12268136823F46A
:10180C008063136072B623681A69636A591C61623B
:10181C001A70238D013B2385638D013B9BB263853D
:10182C0000950E9B002215492046FFF76EFB002801
:10183C0063D12268136843F40073136023681A6938
:10184C00636A591C61621A70238D013B2385638D79
:10185C00013B9BB2638562B623681A69636A591CA3
:10186C0061621A70238D013B2385638D013B9BB212
:10187C006385B0E7020010000000FFFF04000100C8
:10188C002A460E992046FFF71AFDF0B923681A690B
:10189C00636A591C61621A70238D013B2385638D29
:1018AC00013B9BB2638523685A6912F0040F92D0F6
:1018BC001A69636A591C61621A70238D013B238576
:1018CC00638D013B9BB2638585E7236C202B01D094
:1018DC000126A4E60326A2E6202384F83D3000234B
:1018EC0084F83E3084F83C3099E6022697E60226CE
:1018FC0095E6032693E6032691E603268FE600BFC2
:10190C0070B483B0BDF81C600024019490F83D4085
:10191C00E4B2202C59D1314C2468E408304DA5FB9D
:10192C000454240A04EB840404EB84040194019C05
:10193C00651E0195002C3FD00468A56915F0020FB7
:10194C00F5D190F83C50012D43D0012580F83C5046
:10195C00256815F0010F03D1256845F001052560B8
:10196C0005682C6824F400642C60222480F83D4027
:10197C00402480F83E4000240464069D45620685A0
:10198C004685184DC56241648264C364046502686F
:10199C00136843F4806313600268136843F4807324
:1019AC00136080F83C40038DABB10268536843F47C
:1019BC00E0635360204609E000230363202280F893
:1019CC003D2080F83C30032000E0022003B070BCC6
:1019DC0070470220FAE70020F8E700BF0C00002057
:1019EC0089B5F8140000FFFF70477047704708B5C1
:1019FC0090F83D30DAB2438D9BB273B1436A591CF7
:101A0C00416201681B780B61438D013B9BB243859E
:101A1C00438D9BB20BB9292A01D0002008BD026866
:101A2C00536823F48063536021230363282380F8D5
:101A3C003D30FFF7DBFFF0E7704790F83D30DAB24E
:101A4C00438D9BB2F3B110B503681969436A5C1CF2
:101A5C0044621970438D013B9BB24385438D9BB20D
:101A6C000BB92A2A01D0002010BD0268536823F458
:101A7C008063536022230363282380F83D30FFF7F3
:101A8C00DBFFF0E700207047704708B503689A69E0
:101A9C0012F0040F09D000219B6913F0800F06D0BF
:101AAC00028BFFF7F1FF002008BD0121F4E78289CA
:101ABC00F7E7704708B590F83D30DBB2C26A042AEC
:101ACC0001D0082A01D1282B07D0212B1FD0036865
:101ADC006FF480625A61002008BD1A4BC362026821
:101AEC00536823F4E063536003686FF480625A61B7
:101AFC000268136823F480631360002303632022BD
:101B0C0080F83D2080F83E30FFF7D3FFE3E70D4B24
:101B1C00C36221230363202380F83D30002380F827
:101B2C003E300268536823F4E063536003686FF43B
:101B3C0080625A610268136823F480631360FFF7B4
:101B4C0055FFC8E70000FFFF704710B590F83D3017
:101B5C00DBB290F83E20D2B2C46A018D09B9212BB8
:101B6C0005D0212B3CD0402A38D0002010BD042CAD
:101B7C0004D0082C02D014F5803F19D102685368A8
:101B8C0023F4E06353600268136843F4007313603A
:101B9C0000230363202380F83D3090F83E30DBB205
:101BAC00402B15D0002380F83E30FFF71DFFDCE7FB
:101BBC000268536823F4E06353601123036300232A
:101BCC0080F83E30202380F83D30FFF70DFFCCE746
:101BDC00002380F83E30FFF7B7FFC6E7222BC4D1B5
:101BEC00438D9BB27BB190F83E30DBB2402B10D0D2
:101BFC00436A5A1C426202681B781361438D013B95
:101C0C009BB24385B1E70268536823F48063536049
:101C1C00ABE7036D9BB9C36C012B08D0836CC3F38A
:101C2C00072302681361036D013303659DE7836C21
:101C3C000268DBB21361036D0233036595E7036D34
:101C4C00012B17D0036D022B8FD190F83D30DBB2F6
:101C5C00222B17D090F83D30DBB2212B85D1436A73
:101C6C005A1C426202681B781361438D013B9BB284
:101C7C0043857AE7836C0268DBB21361036D013331
:101C8C00036572E70268136843F4807313606CE7B2
:101C9C0008B5C26A90F83D30DBB2212B01D0002090
:101CAC0008BD438D9BB203BB042A04D0082A02D082
:101CBC0012F5803F24D10268536823F4E06353602B
:101CCC000268136843F4007313600023036320233A
:101CDC0080F83D3090F83E30DBB2402B20D0002312
:101CEC0080F83E30FFF780FED9E7436A5A1C426207
:101CFC0002681B781361438D013B9BB24385CEE791
:101D0C000268536823F4E0635360112303630023D8
:101D1C0080F83E30202380F83D30FFF765FEBEE7AB
:101D2C00002380F83E30FFF70FFFB8E708B590F8B6
:101D3C003D30DBB2222B01D0002008BD438D9BB27D
:101D4C00032B29D8023B012B31D9C36A022B47D074
:101D5C000268136823F4806313600268536823F4E9
:101D6C00E063536003681A69436A591C41621A7034
:101D7C00438D013B9BB24385202380F83D300023EB
:101D8C00036390F83E30DBB2402B2FD0002380F859
:101D9C003E30FFF72AFECFE703681A69436A591CE5
:101DAC0041621A70438D013B9BB24385C4E7C36A01
:101DBC00022B0FD00268136823F48063136002684F
:101DCC00136843F4006313600268536823F4806360
:101DDC005360B1E70268136843F480631360F3E760
:101DEC000268136843F480631360B6E7002380F83D
:101DFC003E3004F057FB9FE708B5C26A438D9BB297
:101E0C00032B0FD0438D9BB2022B22D003681A698F
:101E1C00436A591C41621A70438D013B9BB2438546
:101E2C00002008BD042A04D0082A02D012F5803FF5
:101E3C0004D10268136823F48063136003681A6981
:101E4C00436A591C41621A70438D013B9BB2438516
:101E5C00E6E7042A17D0082A15D012F5803F12D0D5
:101E6C00022A0AD00268136823F4806313600268A4
:101E7C00536823F4407353600FE00268136843F413
:101E8C0080631360F3E70268536823F44073536074
:101E9C000268136843F40073136003681A69436A99
:101EAC00591C41621A70438D013B9BB243850368F8
:101EBC001A69436A591C41621A70438D013B9BB2EB
:101ECC004385202380F83D300023036390F83E3097
:101EDC00DBB2402B05D0002380F83E30FFF785FDA8
:101EEC009EE7002380F83E3004F0DCFA98E7704758
:101EFC007047000010B5044690F83D30293B012B8B
:101F0C0036D990F83D30DBB2602B07D003685B68A4
:101F1C0013F4006F02D1202380F83D30002323639B
:101F2C0084F83E302268136823F40063136023683E
:101F3C005A6812F4006F3ED05A6822F400625A605C
:101F4C00636B93F82120012A18D03A4A5A63606BCC
:101F5C00FEF71EFC00283FD02268136823F0010313
:101F6C001360202384F83D30606B436B984733E05B
:101F7C0000230363282380F83D30D3E7A36B2D4A5D
:101F8C005A63A06BFEF704FC30B323685A6912F055
:101F9C00400F04D01A69636A591C61621A70226876
:101FAC00136823F001031360202384F83D30A06BE9
:101FBC00436B984710E094F83D20D2B2602A11D0C0
:101FCC005A6912F0400F04D01A69636A591C616295
:101FDC001A702046FFF78BFF94F83D30DBB2282BAC
:101FEC0017D010BD202284F83D20002222645A69AB
:101FFC0012F0400F04D01A69636A591C61621A709E
:10200C002268136823F0010313602046FFF770FF6A
:10201C00E2E7236C13F0040FE3D0074BE3620023D9
:10202C002363202284F83D2084F83E302046FFF7BD
:10203C0040FDD6E78D2300080000FFFF10B582B0ED
:10204C0090F83D30DBB201684A6822F4E0624A60E5
:10205C0000220192026851690191116841F001015D
:10206C001160019A01680A6822F480620A600168B2
:10207C004A6812F4006F14D090F83D20D2B2222A94
:10208C000AD090F83D20D2B22A2A05D0426B1268B1
:10209C00526892B2428504E0826B1268526892B226
:1020AC004285428D92B2F2B14A6912F0040F08D007
:1020BC000969426A541C44621170428D013A92B211
:1020CC0042850268516911F0400F08D01169426ACB
:1020DC00541C44621170428D013A92B24285026CDA
:1020EC0042F004020264026CA2B9282B15D02A2BF0
:1020FC0013D0292B11D0026B222A01D0222B17D1FD
:10210C0000230363202280F83D2080F83E30FFF747
:10211C0093FC0DE0FFF7EEFE0AE0074BC3620023D1
:10212C000363202280F83D2080F83E30FFF7C1FC8D
:10213C00002002B010BD00BF0000FFFFF8B505463F
:10214C0003689F695C695E6890F83E30DBB2102BC7
:10215C0025D0402B23D04C4B234013B116F4007FD9
:10216C006ED14A4B234013B116F4007F6BD1484B10
:10217C003B40002B6FD0474B234033B116F4806F9C
:10218C0003D0454B2340002B61D0434B234053B32A
:10219C0016F4007F27D02846FEF784FE23E014F0C7
:1021AC00011F02D016F4007F1ED13C4B234013B10B
:1021BC0016F4007F1CD1344B234013B116F4007F6E
:1021CC001AD1334B3B401BB3324B23402BB116F48B
:1021DC00806F02D0304B234093B12F4B234013B16F
:1021EC0016F4007F10D1F8BD2846FEF723FDE8E772
:1021FC002846FEF764FDE4E72846FEF766FDE0E7B7
:10220C002846FFF7A2FCEEE72846FFF741FDEAE778
:10221C00234B23402BB116F4806F02D01E4B23406E
:10222C0053B11D4B2340002BDDD016F4007FDAD0C8
:10223C002846FFF7E1FDD6E72846FFF777FDD2E702
:10224C00FFF723FCCFE72846FFF7F8FECBE728463D
:10225C00FFF7CDFBC7E7124B23402BB116F4806F71
:10226C0002D00D4B234053B10B4B2340002BBAD063
:10227C0016F4007FB7D02846FEF723FEB3E72846B6
:10228C00FFF7DBFBAFE700BF02000100100001000D
:10229C00040010008000010004000100080001008F
:1022AC004000010070B5044603685D695E68334AFE
:1022BC0015420ED016F4807F0BD0026C42F0010256
:1022CC0002646FF480725A610268136843F400432D
:1022DC00136015F4813F0AD016F4807F07D0236C6D
:1022EC0043F00203236423686FF400725A6115F4FF
:1022FC00823F1AD016F4807F17D094F83E30DBB2B0
:10230C00628D91B294F83D20D2B2206B202B1DD05F
:10231C00236C43F00403236494F83E30DBB2102B9F
:10232C0022D023686FF480625A6115F4843F0AD07E
:10233C0016F4807F07D0236C43F0080323642368D2
:10234C006FF400625A61236CA3B970BD0029DFD110
:10235C00212A05D0292A03D0282AD9D12128D7D13E
:10236C002046FFF7A7FBE0E72268136843F40073ED
:10237C001360D6E72046FFF7BDFDE6E7000101003C
:10238C0008B5406A0268136823F480631360002365
:10239C004385426B5363826B536390F83D30DBB2E1
:1023AC00602B0DD0202380F83D30002380F83E3088
:1023BC000268136823F001031360FFF798FD08BD52
:1023CC00202380F83D30002380F83E3003640268FF
:1023DC00136823F001031360FFF78AFDEFE7002871
:1023EC0066D0F0B587B0044690F82934C3B1032306
:1023FC0084F82934206801F08EFB254655F8107BB3
:10240C006E460FCD0FC62B683360231D0ECB38469E
:10241C0001F072FB0021206801F087FB002315E01E
:10242C0080F8283404F024FBE1E704EB431201218B
:10243C0082F8291082F828309386002182F82B101C
:10244C009163D1639A1C5201A15001330E2BECD92C
:10245C00002312E004EB4312002182F8291282F8C7
:10246C002832938682F82B12C2F83812C2F83C122A
:10247C0003F112025201A15001330E2BEAD9254669
:10248C0055F8107B6E460FCD0FC62B683360231D9D
:10249C000ECB384601F04BFB002584F82450012369
:1024AC0084F82934206801F058FB284607B0F0BDA9
:1024BC000120704782B0084B1B68084AA2FB03231B
:1024CC005B0A00FB03F0019000BF019B5A1E0192B6
:1024DC00002BF9D102B070470C000020D34D6210D4
:1024EC0070B582B00446036813F0010F2CD0AB4BCF
:1024FC005B6803F00C03042B1DD0A84B5B6803F046
:10250C000C03082B12D06368B3F5803F41D0002B2D
:10251C0055D103F1804303F504331A6822F4803259
:10252C001A601A6822F480221A6037E09B4B5B68B1
:10253C0013F4803FE7D0994B1B6813F4003F03D092
:10254C006368002B00F0AE81236813F0020F76D085
:10255C00924B5B6813F00C0F5FD0904B5B6803F0F1
:10256C000C03082B54D02369002B00F08A808C4B71
:10257C0001221A60FDF730FE0546884B1B6813F0EC
:10258C00020F75D1FDF728FE401B0228F5D9032058
:10259C008BE1824A136843F480331360636843B35E
:1025AC00FDF71AFE05467D4B1B6813F4003FCBD19B
:1025BC00FDF712FE401B6428F5D9032075E1B3F535
:1025CC00A02F09D0754B1A6822F480321A601A6851
:1025DC0022F480221A60E1E703F18043A3F53C3337
:1025EC001A6842F480221A601A6842F480321A6027
:1025FC00D4E7FDF7F1FD0546684B1B6813F4003F6B
:10260C00A2D0FDF7E9FD401B6428F5D903204CE16D
:10261C00624B5B6813F4803FA5D1604B1B6813F0D1
:10262C00020F04D02369012B01D001203DE15B4A4C
:10263C00136823F0F803616943EAC103136023684C
:10264C0013F0080F32D0A369002B5BD0554B01223D
:10265C001A60FDF7C1FD0546504B5B6A13F0020F83
:10266C0021D1FDF7B9FD401B0228F5D903201CE14F
:10267C004A4A136823F0F803616943EAC103136003
:10268C00DDE7474B00221A60FDF7A6FD0546434BDC
:10269C001B6813F0020FD2D0FDF79EFD401B0228E1
:1026AC00F5D9032001E10120FFF704FF236813F0A3
:1026BC00040F00F09780394BDB6913F0805F33D146
:1026CC00364BDA6942F08052DA61DB6903F08053F1
:1026DC000193019B0125344B1B6813F4807F25D09B
:1026EC00E368012B36D0002B4CD103F1804303F56A
:1026FC0004331A6A22F001021A621A6A22F00402E6
:10270C001A622CE0274B00221A60FDF765FD054686
:10271C00224B5B6A13F0020FC8D0FDF75DFD401B26
:10272C000228F5D90320C0E00025D4E71E4A13681F
:10273C0043F480731360FDF74FFD06461A4B1B687C
:10274C0013F4807FCCD1FDF747FD801B6428F5D9AD
:10275C000320AAE0114A136A43F001031362E368F1
:10276C0073B3FDF739FD06460C4B1B6A13F0020FD1
:10277C0037D1FDF731FD801B41F288339842F3D9F4
:10278C00032092E0052B11D0044B1A6A22F00102AF
:10279C001A621A6A22F004021A62E0E70010024080
:1027AC00000042428004424200700040414B1A6AD1
:1027BC0042F004021A621A6A42F001021A62CEE76F
:1027CC00FDF70AFD06463B4B1B6A13F0020F08D0BF
:1027DC00FDF702FD801B41F288339842F3D90320A8
:1027EC0063E0E5B9E369002B5ED0324A526802F02F
:1027FC000C02082A5BD0022B17D02F4B00221A6038
:10280C00FDF7EAFC04462B4B1B6813F0007F47D006
:10281C00FDF7E2FC001B0228F5D9032045E0254A10
:10282C00D36923F08053D361DCE7234B00221A6079
:10283C00FDF7D2FC05461F4B1B6813F0007F06D03A
:10284C00FDF7CAFC401B0228F5D903202DE0236AB2
:10285C00B3F5803F1AD017494B6823F47413226ADE
:10286C00606A024313434B60134B01221A60FDF75D
:10287C00B3FC04460F4B1B6813F0007F0ED1FDF721
:10288C00ABFC001B0228F5D903200EE0094A536863
:10289C0023F40033A1680B435360DCE7002004E011
:1028AC00002002E0012000E0002002B070BD0120F9
:1028BC00FBE700BF001002406000424210B487B03A
:1028CC00164C94E80F000DF1180C0CE90F00238A3C
:1028DC00ADF80430124B5B6803F00C02082A1AD1D5
:1028EC00C3F38342624412F8102C13F4803F05D1D9
:1028FC000C4800FB02F007B010BC7047084B5B683B
:10290C00C3F34043634413F8143C074800FB02F044
:10291C00B0FBF3F0EFE70448EDE700BFFC730008F1
:10292C000010024000093D0000127A00624B1B6847
:10293C0003F007038B420CD25F4A136823F00703A2
:10294C000B431360136803F007038B4201D0012083
:10295C00704770B5036813F0020F17D013F0040F13
:10296C0004D0564A536843F4E0635360036813F091
:10297C00080F04D0514A536843F4605353604F4AD4
:10298C00536823F0F0038468234353600D460446D8
:10299C00036813F0010F52D04368012B23D0022B94
:1029AC0028D0464A126812F0020F00F08280434988
:1029BC004A6822F0030213434B60FDF70DFC0646F8
:1029CC006368012B1DD0022B2AD03C4B5B6813F0A3
:1029DC000C0F34D0FDF700FC801B41F28833984279
:1029EC00F3D9032064E0354A126812F4003FDED1BB
:1029FC0001205DE0314A126812F0007FD7D101202E
:102A0C0056E02E4B5B6803F00C03042B17D0FDF73C
:102A1C00E3FB801B41F288339842F2D9032047E054
:102A2C00264B5B6803F00C03082B08D0FDF7D4FB96
:102A3C00801B41F288339842F2D9032038E01E4BB8
:102A4C001B6803F00703AB420CD91B4A136823F035
:102A5C0007032B431360136803F00703AB4201D049
:102A6C00012025E0236813F0040F06D0134A5368A5
:102A7C0023F4E063E1680B435360236813F0080F01
:102A8C0007D00E4A536823F46053216943EAC1030B
:102A9C005360FFF713FF094B5B68C3F30313084A3A
:102AAC00D35CD840074B18600020FDF751FB002089
:102ABC0070BD0120FCE700BF002002400010024066
:102ACC00887500080C000020014B1868704700BF87
:102ADC000C00002008B5FFF7F7FF044B5B68C3F34D
:102AEC000223034AD35CD84008BD00BF001002404B
:102AFC009875000808B5FFF7E7FF044B5B68C3F354
:102B0C00C223034AD35CD84008BD00BF001002406A
:102B1C009875000870B582B00446036813F0010F75
:102B2C0034D03E4BDB6913F0805F48D13B4BDA6904
:102B3C0042F08052DA61DB6903F080530193019B10
:102B4C000125374B1B6813F4807F3AD0334B1B6A3B
:102B5C0013F4407311D0626802F440729A420CD0A4
:102B6C002E4A136A23F440702E4901260E6000266B
:102B7C000E60106213F0010F37D1284A136A23F448
:102B8C00407361680B431362002D3FD1236813F02F
:102B9C00020F06D0214A536823F44043A1680B432B
:102BAC005360236813F0100F35D01C4A536823F47C
:102BBC008003E1680B435360002002B070BD002518
:102BCC00BFE7174A136843F480731360FDF704FBE7
:102BDC000646134B1B6813F4807FB7D1FDF7FCFA44
:102BEC00801B6428F5D90320E7E7FDF7F5FA0646C4
:102BFC000A4B1B6A13F0020FBFD1FDF7EDFA801BD5
:102C0C0041F288339842F3D90320D6E7D36923F0F5
:102C1C008053D361BAE70020CFE700BF0010024019
:102C2C000070004040044242F8B505460F46164677
:102C3C001C463BE02CB1FDF7CFFA069BC01AA04214
:102C4C0034D32A68536823F0E00353606B68B3F500
:102C5C00827F0BD0AB6AB3F5005F14D0012385F8EB
:102C6C005130002385F85030032027E0AB68B3F5D2
:102C7C00004F02D0B3F5806FECD12A68136823F0B3
:102C8C0040031360E6E72A68136823F400531B041F
:102C9C001B0C13602A68136843F400531360DDE7C0
:102CAC000123B34209D0B4F1FF3FC3D12B689B6819
:102CBC0037EA0303F4D00023F3E70020F8BD10B586
:102CCC0082B0044600920B4600228021FFF7ACFF35
:102CDC00034610B9184602B010BD636D43F02003D3
:102CEC0063650323F6E790B110B50446022380F820
:102CFC0051300268136823F04003136003F0BAFCF0
:102D0C000020606584F8510084F8500010BD01204B
:102D1C0070472DE9F04385B099460C9D90F85030E2
:102D2C00012B00F0108104460F461646012380F853
:102D3C005030FDF751FA804694F85130DBB262689E
:102D4C00012B15D0B2F5827F0AD00223012284F820
:102D5C005120002284F85020184605B0BDE8F083BD
:102D6C00A268002A40F0E780042B01D00223EDE793
:102D7C00002F00F0E280002E00F0E180B9F1000F8E
:102D8C0000F0DF8094F85130DBB2012B2BD0002304
:102D9C006365A663A4F83E90A4F83C902763A4F85E
:102DAC003690A4F834902364636423681A6812F094
:102DBC00400F03D11A6842F040021A60E368B3F581
:102DCC00006F14D063681BB1E38E9BB2012B07D14B
:102DDC00236817F8012B1A73E38E013B9BB2E38631
:102DEC004FF0010961E0052384F85130CFE76368A7
:102DFC001BB1E38E9BB2012B07D1236837F8022B52
:102E0C00DA60E38E013B9BB2E3864FF0010913E0DD
:102E1C00E38F9BB26BB123689A6812F0010F08D054
:102E2C00DB6826F8023BE38F013B9BB2E3874FF054
:102E3C000109B5F1FF3F1CD1E38E9BB21BB9E38FA7
:102E4C009BB2002B55D0B9F1000FE1D0E38E9BB2B1
:102E5C00002BDDD023689A6812F0020FD8D037F817
:102E6C00022BDA60E38E013B9BB2E3864FF0000944
:102E7C00CEE7FDF7B1F9A0EB0800A842DCD30323A1
:102E8C0064E7E38F9BB26BB123689A6812F0010F71
:102E9C0008D0DB683370E38F013B9BB2E3870136CC
:102EAC004FF00109B5F1FF3F1BD1E38E9BB213B973
:102EBC00E38F9BB2EBB1B9F1000FE2D0E38E9BB282
:102ECC00002BDED023689A6812F0020FD9D03A7822
:102EDC001A73E38E013B9BB2E38601374FF0000976
:102EEC00CFE7FDF779F9A0EB0800A842DDD3032367
:102EFC002CE7CDF800802B46012202212046FFF75B
:102F0C0093FE08B1032321E7424629462046FFF7EA
:102F1C00D6FE034618B120236365012316E7A26889
:102F2C00002A7FF413AF03922268D1680391926850
:102F3C000392039A0AE7022308E7012306E7012319
:102F4C0004E7012302E7022306E790F851007047DB
:102F5C0000283CD010B504460023836290F8513011
:102F6C00002B31D0022384F851302268136823F0EF
:102F7C00400313606368A2681343E2681343226939
:102F8C00134362691343A26902F400721343E269AA
:102F9C001343226A1343A16A22680B431360638BA9
:102FAC0003F00403616A22680B4353602368E26AEE
:102FBC001A612268D36923F40063D3610020606531
:102FCC00012384F8513010BD03F01AFBCAE701202D
:102FDC00704710B4036A046A24F001040462846923
:102FEC0024F0F00444EA021223F00A030B4382613A
:102FFC00036210BC704710B4036A23F01003036221
:10300C008469036A24F4704444EA023223F0A00376
:10301C0043EA01138261036210BC7047836823F09A
:10302C00700341F0070119438160704710B4846844
:10303C0024F47F4442EA03230B432343836010BCF4
:10304C0070470268D36843F00103D36002681368C9
:10305C0043F0010313600020704790F83C30012BC3
:10306C007DD010B50446012380F83C30022380F853
:10307C003D300268936823F47F4323F07703936019
:10308C000B68402B57D010D9702B3ED01FD8502B2B
:10309C0047D0602B32D1CA6849680068FFF7ABFF94
:1030AC0060212068FFF7BAFF28E0102B4DD008D91B
:1030BC00202B4FD0302B21D130210068FFF7AEFFF1
:1030CC001CE0DBB900210068FFF7A8FF16E0B3F5A0
:1030DC00805F0ED0B3F5005F10D1CB684A68896869
:1030EC000068FFF7A3FF2268936843F48043936062
:1030FC0004E00268936823F007039360012384F8CB
:10310C003D30002084F83C0010BDCB684A688968CB
:10311C000068FFF78BFF2268936843F07703936096
:10312C00ECE7CA6849680068FFF753FF5021206834
:10313C00FFF774FFE2E7CA6849680068FFF749FFC8
:10314C0040212068FFF76AFFD8E710210068FFF7DD
:10315C0065FFD3E720210068FFF760FFCEE7022070
:10316C007047704770477047704710B50446036846
:10317C001A6912F0020F11D0DA6812F0020F0DD09A
:10318C006FF002021A610123037703689B6913F045
:10319C00030F70D0FFF7E6FF0023237723681A692B
:1031AC0012F0040F12D0DA6812F0040F0ED06FF088
:1031BC0004021A610223237723689B6913F4407F6E
:1031CC005FD02046FFF7CEFF0023237723681A69D0
:1031DC0012F0080F12D0DA6812F0080F0ED06FF050
:1031EC0008021A61042323772368DB6913F0030FA9
:1031FC004ED02046FFF7B6FF0023237723681A69C9
:10320C0012F0100F12D0DA6812F0100F0ED06FF00F
:10321C0010021A61082323772368DB6913F4407FBB
:10322C003DD02046FFF79EFF0023237723681A69C1
:10323C0012F0010F03D0DA6812F0010F36D12368B7
:10324C001A6912F0800F03D0DA6812F0800F34D1B3
:10325C0023681A6912F0400F03D0DA6812F0400F9D
:10326C0032D123681A6912F0200F03D0DA6812F0F9
:10327C00200F30D110BDFFF774FF2046FFF773FF0E
:10328C008AE72046FFF76DFF2046FFF76CFF9BE7B0
:10329C002046FFF766FF2046FFF765FFACE72046A8
:1032AC00FFF75FFF2046FFF75EFFBDE76FF00102FF
:1032BC001A61204603F074F8C1E76FF080021A61BE
:1032CC00204600F08CF8C3E76FF040021A612046EC
:1032DC00FFF74AFFC5E76FF020021A61204600F0A5
:1032EC007DF8C7E703681B4A90420AD0B0F1804FC3
:1032FC0007D0A2F59432904203D002F5806290423E
:10330C0003D123F070034A681343124A90420AD047
:10331C00B0F1804F07D0A2F59432904203D002F561
:10332C008062904203D123F44073CA68134323F0A4
:10333C0080034A69134303608B68C3620B68836222
:10334C00044B984202D00123436170470B6903631D
:10335C00F9E700BF002C0140A8B110B5044690F865
:10336C003D305BB1022384F83D30211D2068FFF70E
:10337C00B9FF012384F83D30002010BD80F83C30AB
:10338C0003F05CFAEEE70120704790F83C30012B1B
:10339C0022D030B4012280F83C20022380F83D304A
:1033AC000468636823F070036360046863680D68E5
:1033BC002B4363600468A36823F08003A360046854
:1033CC00A36849680B43A36080F83D20002380F874
:1033DC003C30184630BC704702207047704770472D
:1033EC000268D36823F0C003D360202380F83930FF
:1033FC0070470268D36823F49073D36002685369F2
:10340C0023F001035361202380F83A30704790F881
:10341C003930DBB2212B2AD18368B3F5805F16D00B
:10342C00036A5A1C02621A7803685A60C38C013B07
:10343C009BB2C384EBB90268D36823F08003D360DA
:10344C000268D36843F04003D36000207047036ADE
:10345C001B880268C3F30803536003691BB9036A32
:10346C0002330362E2E7036A01330362DEE7022000
:10347C0070470020704700002DE9F84305460268AC
:10348C00136923F44053C1680B43136183680269C9
:10349C001343426913430168CA6822F4B05222F004
:1034AC000C021343CB600268536923F440738169A7
:1034BC000B4353610268594B9A4257D0FFF70AFBF2
:1034CC0000EB800000EB80006C68A400B0FBF4F40F
:1034DC00534FA7FB043464092601FFF7FBFA00EBFA
:1034EC00800000EB80006C68A400B0FBF4F9FFF7DF
:1034FC00F1FA00EB800000EB80006C68A400B0FBDC
:10350C00F4F4A7FB043464094FF0640808FB14942A
:10351C0024013234A7FB0434640904F0F00434446D
:10352C00FFF7D8FA00EB800000EB80006E68B60065
:10353C00B0FBF6F6FFF7CEFA00EB800000EB800054
:10354C006B689B00B0FBF3F0A7FB0030400908FB55
:10355C0010684FEA081808F13208A7FB0837C7F3C0
:10356C0043172B6827449F60BDE8F883FFF7C2FA26
:10357C0000EB800000EB80006C68A400B0FBF4F45E
:10358C00274FA7FB043464092601FFF7B3FA00EBBD
:10359C00800000EB80006C68A400B0FBF4F9FFF72E
:1035AC00A9FA00EB800000EB80006C68A400B0FB73
:1035BC00F4F4A7FB043464094FF0640808FB14947A
:1035CC0024013234A7FB0434640904F0F0043444BD
:1035DC00FFF790FA00EB800000EB80006E68B600FD
:1035EC00B0FBF6F6FFF786FA00EB800000EB8000EC
:1035FC006B689B00B0FBF3F0A7FB0030400908FBA5
:10360C0010684FEA081808F13208A7FB0837C7F30F
:10361C0043172B6827449F60A6E700BF0038014082
:10362C001F85EB512DE9F04105460F46164698468D
:10363C00069C2B681B6837EA03030CBF012300238D
:10364C00B3421DD1B4F1FF3FF3D02CB1FCF7C4FD54
:10365C00A0EB0800A042ECD92A68D36823F4D073FD
:10366C00D3602A68536923F001035361202385F842
:10367C00393085F83A30002385F83830032000E0E3
:10368C000020BDE8F08158B310B5044690F83930ED
:10369C000BB3242384F839302268D36823F4005305
:1036AC00D3602046FFF7E8FE2268136923F49043A9
:1036BC0013612268536923F02A0353612268D3688B
:1036CC0043F40053D3600020E063202384F83930A6
:1036DC0084F83A3010BD80F8383003F003F9D8E79D
:1036EC00012070472DE9F04182B01E4690F8393028
:1036FC00DBB2202B55D104460D469046002955D0FF
:10370C00002A55D090F83830012B53D0012380F883
:10371C0038300023C363212380F83930FCF75CFD7B
:10372C000746A4F82480A4F8268010E000963B46B7
:10373C00002280212046FFF775FF00283CD12B8802
:10374C002268C3F3080353602369C3B90235E38CC1
:10375C009BB2B3B1E38C013B9BB2E384A368B3F59A
:10376C00805FE3D000963B46002280212046FFF785
:10377C0059FF18BB2A7823685A600135E7E70135F1
:10378C00E5E700963B46002240212046FFF74AFF22
:10379C000346A8B9202284F83920002284F8382066
:1037AC0000E00223184602B0BDE8F0810123F9E7DE
:1037BC000123F7E70223F5E70323F3E70323F1E7FC
:1037CC000323EFE730B583B090F83A40E4B2202CF5
:1037DC003DD100293ED0002A3ED090F83830012B44
:1037EC003CD013460A460446012180F83810826208
:1037FC0083850025C563222180F83A10416B184857
:10380C008862616B1748C862616B17480863616B0B
:10381C004D6321680431606BFCF780FF01952368D0
:10382C001A6801925A680192019A84F83850DA6841
:10383C0042F48072DA602268536943F001035361E9
:10384C002268536943F040035361284600E002208C
:10385C0003B030BD0120FBE70120F9E70220F7E7B8
:10386C0095380008713900087D390008704708B593
:10387C000168CB6823F04003CB60202380F83930FB
:10388C00FFF7F4FF002008BD08B5436A0268126810
:10389C0012F0200F13D10022DA851968CA6822F4BD
:1038AC008072CA6019684A6922F001024A6119687B
:1038BC004A6922F040024A61202283F83A201846D5
:1038CC0002F078FE08BD08B590F83A30DBB2222B36
:1038DC0045D18368B3F5805F0ED0036903BB0368E1
:1038EC005A68836A591C81621A70C38D013B9BB262
:1038FC00C385F3B1002033E0826A036943B90368DE
:10390C005B68C3F308031380836A02338362ECE7BA
:10391C0003685B68DBB21380836A01338362E4E77C
:10392C0003685B68826A511C816203F07F03137029
:10393C00DBE70268D36823F02003D3600268D36806
:10394C0023F48073D3600268536923F0010353613D
:10395C00202380F83A3002F02DFE002000E00220F7
:10396C0008BD704708B5406AFFF7FBFF08BD7047FC
:10397C0010B5446A23685A6994F83930DBB2212BAC
:10398C0010D023685A6902F0400294F83A30DBB246
:10399C00222B11D0E36B43F01003E3632046FFF7B7
:1039AC00E6FF10BD02F08002002AEAD00023E38477
:1039BC002046FFF715FDE4E7002AEBD00023E38552
:1039CC002046FFF716FDE5E710B5044602681368BC
:1039DC00D168526913F00F0005D113F0200F02D0FB
:1039EC0011F0200F53D1002867D012F0010202D140
:1039FC0011F4907F61D013F0010F06D011F4807F89
:103A0C0003D0E06B40F00100E06313F0040F04D02E
:103A1C001AB1E06B40F00200E06313F0020F04D027
:103A2C001AB1E06B40F00400E06313F0080F04D00F
:103A3C001AB1E26B42F00802E263E26B002A48D052
:103A4C0013F0200F02D011F0200F24D123685B69F2
:103A5C0003F04003E26B12F0080F00D13BB3204699
:103A6C00FFF7C7FC23685A6912F0400F1BD05A6944
:103A7C0022F040025A61636B8BB11A4A5A63606B35
:103A8C00FCF786FE28B3606B436B984721E0204619
:103A9C00FFF719FF1DE02046FFF715FFD6E720467C
:103AAC00FFF765FF15E02046FFF761FF11E02046A8
:103ABC00FFF75DFF0023E3630BE013F0800F02D0F0
:103ACC0011F0800F06D113F0400F02D011F0400F0F
:103ADC0004D110BD2046FFF79AFCFAE72046FFF709
:103AEC00C6FEF6E7F53A000808B5406A0023C38520
:103AFC00C384FFF73CFF08BD84B001A880E80E002A
:103B0C00002004B07047B0F8403043F43F43A0F8B5
:103B1C00403000207047B0F8403023F474535B04FD
:103B2C005B0CA0F84030002070470020704784B038
:103B3C0038B505AC84E80E000123A0F84030002411
:103B4C00A0F84040A0F84440A0F85040FFF7DBFF3D
:103B5C002046BDE8384004B0704700207047000094
:103B6C0008B5074B01221A7001F032FF20B9044A44
:103B7C00137803F0FE031370014B187808BD00BFD7
:103B8C000800002008B50E4B1B68C34013F0010F52
:103B9C0001D0002008BD012303FA00F0084A116887
:103BAC0008431060074A137001F0E8FD20B9054A7C
:103BBC00137803F0FE031370024B1878C0B2E9E7D8
:103BCC00900000200800002008B5084651024FF470
:103BDC00007201F0DFFD00B1012008BD08B50846F8
:103BEC0051024FF4007201F04BFE00B1012008BDF0
:103BFC00134B1B7813F0010F1DD103291DD8DFE8DF
:103C0C0001F0020410150020704710B58EB0144658
:103C1C00684601F0AFFE0C9B5B0A236000200EB0DF
:103C2C0010BD4FF400731380002070474FF40073E5
:103C3C00136001207047032070470420704700BFB9
:103C4C000800002004E00A780270013101301A46A5
:103C5C00531E002AF7D1704702E0017001301A465A
:103C6C00531E002AF9D1704770B40346002001E0BE
:103C7C0029463346541E32B15E1C18784D1C0B7805
:103C8C002246C01AF4D070BC704700E001300378B3
:103C9C000BB18B42FAD118467047CA7E8B7E43EA31
:103CAC00022390F80022032A01D018467047487D61
:103CBC000A7D42EA002243EA0243F6E78176C1F329
:103CCC000723C376090C0175090A4175704700007A
:103CDC002DE9F84F89460C6800E0013423782F2B2E
:103CEC00FBD05C2BF9D0D0F818A20B222021504627
:103CFC00FFF7B2FF002633464FF00808374619E0AD
:103D0C00BF00FFB246464FF00B0812E015F0800FD3
:103D1C0025D129463148FFF7B8FF00285AD1A5F123
:103D2C004103DBB2192B20D847F002070AF80650E2
:103D3C0001365B4603F1010BE55C202D1FD92F2DBD
:103D4C001DD05C2D1BD02E2D01D0B045DED8B8F186
:103D5C00080F3DD12E2DD3D00620BDE8F88F47F0AB
:103D6C000307803D1E4B5D5DD3E7A5F16103DBB21C
:103D7C00192BDBD847F00107203DEDB2D6E75C44A8
:103D8C00C9F80040202D14D804232EB39AF8002033
:103D9C00E52A10D0B8F1080F11D007F00302012A60
:103DAC0010D007F00C07042F0FD08AF80B3000202E
:103DBC00D3E70023E9E705228AF80020EAE7BF00F1
:103DCC00FFB2EAE743F01003EBE743F00803ECE73C
:103DDC000620C2E70620C0E70620BEE7987400085C
:103DEC0018740008016809B10A4603E04FF0FF336C
:103DFC0008E001321378202B01D93A2BF9D13A2B58
:103E0C0002D000231846704710B44C1C0B78303B82
:103E1C00092B07D8A24208D153B9013202601846C7
:103E2C0010BC70474FF0FF33F9E74FF0FF33F6E764
:103E3C004FF0FF33F3E7F8B590F804320BB90020DC
:103E4C00F8BD0446D0F82C52074601232A460146F9
:103E5C0090F80102FFF7C2FED8B9002384F80432AF
:103E6C00D4F82032EB1AD4F81822934213D294F8D7
:103E7C000362012E0BD9D4F818321D4401232A46B3
:103E8C00394694F80102FFF7A9FE013EF1E7002044
:103E9C00D6E70120D4E70020D2E770B5D0F82C3259
:103EAC008B4213D004460D46FFF7C5FF064670B98A
:103EBC0001232A46214694F80102FFF785FE10B132
:103ECC0001264FF0FF35C4F82C5200E00026304696
:103EDC0070BD000010B50446002380F804324FF08A
:103EEC00FF33C0F82C32FFF7D8FF88BB94F8FF21C2
:103EFC0094F8FE3143EA02231BB2184A934229D1AB
:103F0C0094F8392094F838301B0443EA026394F88F
:103F1C00372043EA022394F83620134323F07F43DF
:103F2C000F4A934218D094F8552094F854301B043F
:103F3C0043EA026394F8532043EA022394F8522094
:103F4C00134323F07F43064A934204D0012002E03E
:103F5C00032000E0022010BD0020FCE755AAFFFF63
:103F6C0046415400B8B108B5D0F80032ABB193F863
:103F7C000012A1B1B3F80612B0F80422914201D09C
:103F8C00092008BD93F80102FFF7EAFD10F0010FBC
:103F9C0007D10020F5E7092070470920F1E7092037
:103FAC00EFE70920EDE70000F0B585B006461746AF
:103FBC00002303600846FFF715FF051EC0F28A8137
:103FCC00D04B53F82540002C00F08781346094F8D6
:103FDC0000327BB194F80102FFF7C2FD10F0010F23
:103FEC0008D1002F00F07B8110F0040F40F0798194
:103FFC00002070E1002384F80032E8B284F801025A
:10400C00FFF7C0FD10F0010F40F06D811FB110F0F3
:10401C00040F40F06A8100212046FFF75BFF034646
:10402C00012800F0C8800026032B00F06081002BD3
:10403C0040F05F81227BE37A43EA02231BB2B3F5A3
:10404C00007F40F05881E27DA37D53EA02230DD11D
:10405C0094F8272094F826301B0443EA026394F862
:10406C00252043EA022394F824201343C4F8183281
:10407C00217C84F803124A1ED2B2012A00F23D813F
:10408C0003FB01F1627B84F80222002A00F03781E5
:10409C00501E024240F04081A07C657C45EA002520
:1040AC00A4F8085215F00F0F40F03881277DE07C02
:1040BC0050EA07200DD194F8237094F822000004E4
:1040CC0040EA076094F8217040EA072094F82070C9
:1040DC00384394F80FE0A77B57EA0E2E00F02081AE
:1040EC000EEB010C0CEB151C6045C0F01B81A0EB1A
:1040FC000C00B0FBF2F2002A00F0168140F6F570CD
:10410C00824271D801274FF6F570824200D90327FD
:10411C000232C4F81422C4F81C620EEB0600C4F878
:10412C002002B444C4F828C2032F5FD0002D00F045
:10413C00FF800144C4F82412022F6CD002EB420120
:10414C0002F0010202EB510202F2FF12B3EB522F0A
:10415C00C0F0F0804FF0FF33C4F81032C4F80C32CA
:10416C00802384F80532032F57D084F80072664AF6
:10417C00138801339BB21380A4F806320020AAE006
:10418C00002304AA02EB810242F8103C01310329FE
:10419C0013D80B0103F5DF7323441A79002AEFD0EF
:1041AC00D87A9A7A120442EA0062587A42EA0022D9
:1041BC001B7A1343E5E70021E9E700250BE03146C4
:1041CC002046FFF787FE034600283FF42DAF01354C
:1041DC00032D3FF629AF04AB03EB850353F8106CAA
:1041EC00002EECD10223F2E702278CE7002D40F0E1
:1041FC009D8094F82F0094F82E10090441EA006178
:10420C0094F82D0041EA002194F82C000143C4F8E5
:10421C002412920098E7520096E794F8312094F813
:10422C00303043EA02231BB2012B9ED1711C204675
:10423C00FFF733FE002898D1002384F8053294F858
:10424C00FF2194F8FE3143EA02231BB22F4A93421A
:10425C008BD1E278A3781B0443EA0263627843EAC9
:10426C000223227813432A4A93427FF47EAF94F8B8
:10427C00E72194F8E6311B0443EA026394F8E52144
:10428C0043EA022394F8E4211343224A93427FF435
:10429C006CAF94F8EB2194F8EA311B0443EA026307
:1042AC0094F8E92143EA022394F8E8211343C4F873
:1042BC00103294F8EF2194F8EE311B0443EA0263B8
:1042CC0094F8ED2143EA022394F8EC211343C4F84B
:1042DC000C324AE70B2005B0F0BD0C20FBE70020A8
:1042EC00F9E70A20F7E70320F5E70A20F3E70120B6
:1042FC00F1E70D20EFE70D20EDE70D20EBE70D20AA
:10430C00E9E700BF940000209800002055AAFFFFA9
:10431C0052526141727241610D20DCE70D20DAE7E7
:10432C000D20D8E70D20D6E70D20D4E70D20D2E7DD
:10433C000D20D0E70D20CEE738B50446FFF77BFD06
:10434C00054658B994F80032032B09D000221146C7
:10435C0094F80102FFF74CFC00B10125284638BD4A
:10436C0094F80532012BF1D14FF400720021204654
:10437C00FFF772FC552384F8FE31AA2384F8FF3131
:10438C005223237063706123A3704122E270722167
:10439C0084F8E41184F8E51184F8E62184F8E73117
:1043AC00D4F8103284F8E831C3F3072284F8E921F9
:1043BC00C3F3074284F8EA211B0E84F8EB31D4F8DE
:1043CC000C3284F8EC31C3F3072284F8ED21C3F3EB
:1043DC00074284F8EE211B0E84F8EF31D4F81C222E
:1043EC000132C4F82C220123214694F80102FFF774
:1043FC00F5FB002384F80532A8E70239D0F8143213
:10440C00023B8B4206D990F80232D0F8280201FB0D
:10441C00030070470020704701295CD9F8B5D0F82B
:10442C0014328B4259D90C46064690F80032022BB6
:10443C0029D0032B37D0012B01D001204EE001EB0A
:10444C005105D0F8201201EB5521FFF726FD00286D
:10445C0045D16F1CC5F30805755DD6F8201201EB2C
:10446C0057213046FFF719FD00283BD1C7F3080749
:10447C00F05D45EA002014F0010F01D000092DE099
:10448C00C0F30B002AE0D0F8201201EB1421FFF747
:10449C0004FD50BB610001F4FF7173185B78705C14
:1044AC0040EA03201AE0D0F8201201EBD411FFF7F8
:1044BC00F4FCE8B9A10001F4FE717218D07893787D
:1044CC001B0443EA0063507843EA0023705C1843F2
:1044DC0020F0704002E0012070470120F8BD4FF041
:1044EC00FF30FBE74FF0FF30F8E74FF0FF30F5E718
:1044FC004FF0FF30F2E7F8B50646A0F80612D0F8F8
:10450C000842012C44D00D46D0F80032D3F81422C6
:10451C00A2423FD91CB993F80022032A17D0CCB978
:10452C00B3F80822AA4237D9D3F82402C6F80C42B1
:10453C00D0B300EB1510C6F81002D6F8003205F017
:10454C000F0503EB4515C6F81452002023E0D3F8F1
:10455C002442E4E793F802723F01BD4212D3214694
:10456C00D6F80002FFF758FF0446B0F1FF3F15D014
:10457C00012815D9D6F80032D3F81432834211D958
:10458C00ED1BEAE72146D6F80002FFF736FFCDE730
:10459C00022000E00220F8BD0220FCE70120FAE72F
:1045AC000220F8E70220F6E70220F4E7012940F2A6
:1045BC008B80D0F814328B4240F288802DE9F04188
:1045CC0016460C46054690F80032022B45D0032BBC
:1045DC0058D0012B03D002231846BDE8F08101EB23
:1045EC005107D0F8201201EB5721FFF756FC034678
:1045FC000028F1D107F10108C7F3080714F00104F2
:10460C0020D0EB5703F00F03320102F47F62134307
:10461C00DBB2EB55012385F80432D5F8201201EBFF
:10462C0058212846FFF739FC03460028D4D1C8F39B
:10463C0008084CB1C6F3071605F80860012285F886
:10464C000422C9E7F3B2E4E715F9081021F00F01D1
:10465C00C6F303260E43F6B2EEE7D0F8201201EBB8
:10466C001421FFF71AFC03460028B5D1610001F4B0
:10467C00FF7168186E54C6F307264670012285F840
:10468C000422A9E7D0F8201201EBD411FFF705FCA6
:10469C0003460028A0D1A10001F4FE716818C4786B
:1046AC008278120442EA046202F0704216436E549D
:1046BC00C6F307224270C6F307428270360EC670EC
:1046CC00012285F8042287E7022300E00223184622
:1046DC007047F8B505460F4641B9D0F80C629EB14B
:1046EC00D0F81432B34210D801260EE0FFF794FE36
:1046FC00034601284BD9B0F1FF3F4DD0D5F8142219
:10470C00824249D83E4600E0012634460CE0214660
:10471C002846FFF781FE034678B1B0F1FF3F3BD04E
:10472C00012839D0B44236D00134D5F81432A34222
:10473C00EDD8012E2DD90224E9E76FF07042214605
:10474C002846FFF733FF034600B997B9C3B9C5F83C
:10475C000C42D5F81032B3F1FF3F1FD0013BC5F826
:10476C00103295F8053243F0010385F805322346E3
:10477C0012E0224639462846FFF718FF0346E5E7C4
:10478C00012B01D0012307E04FF0FF3304E001239C
:10479C0002E0002300E000231846F8BD2346FBE7A7
:1047AC002DE9F843B0F806526B1C9AB2002A00F0BF
:1047BC008480D0F81022002A00F081800F46044635
:1047CC0013F00F060BD10132C0F81022D0F80C12E6
:1047DC0089B9D0F80022B2F808229A4271D96B1C20
:1047EC00A4F80632D4F8003203EB4613C4F81432A2
:1047FC000020BDE8F883D0F8000290F80222013ABC
:10480C0012EA1318EBD1FFF707FE814601285AD99B
:10481C00B0F1FF3F59D0D4F80002D0F814324B4518
:10482C0041D8002F53D0D4F80C12FFF752FF814619
:10483C0000284ED001284ED0B0F1FF3F4DD0D4F817
:10484C000002FFF7F8FA08B10120D2E74FF400722A
:10485C000021D4F80002FFF7FFF9D4F800724946A2
:10486C003846FFF7CAFDC7F82C02D4F8003293F88B
:10487C000222424511D9012283F80422D4F8000205
:10488C00FFF7D9FA58BBD4F80022D2F82C320133F6
:10489C00C2F82C3208F10108E7E7D3F82C22A2EB7E
:1048AC000802C3F82C22C4F80C924946D4F8000232
:1048BC00FFF7A3FDC4F8100291E7042099E7042048
:1048CC0097E7042095E7022093E7012091E7042065
:1048DC008FE707208DE702208BE7012089E7012075
:1048EC0087E738B504460021FFF705FE054640B1C1
:1048FC00284638BD00212046FFF752FF0546002808
:10490C00F6D1D4F81012D4F80002FFF7C6FA054617
:10491C000028EDD1D4F8140203785BB1C37A13F0FC
:10492C00080FE7D10B22D4F81812FFF79DF90028D5
:10493C00E0D1DDE70425DBE710B582B00446019138
:10494C000B782F2B01D05C2B01D10131019100236D
:10495C00C4F80832019B1B781F2B1DD901A92046D6
:10496C00FFF7B6F90346F8B92046FFF7BAFFD4F8BB
:10497C001832DA7A0346D0B912F0040F14D1D4F8F5
:10498C001412CB7A13F0100F18D0D4F80002FFF7E2
:10499C0084F9C4F80802E1E700212046FFF7ABFDDB
:1049AC0003460022C4F81422184602B010BD042895
:1049BC00FAD112F0040FF7D10523F5E70523F3E73D
:1049CC0070B504460E460021FFF795FD0346D8B995
:1049DC00002508E00135B54216D001212046FFF72D
:1049EC00DFFE034680B9D4F81012D4F80002FFF7AA
:1049FC0054FA034640B9D4F814221278E52AE9D0C7
:104A0C00002AE7D00025E8E7042B01D0184670BD3A
:104A1C000723FBE738B505460121FFF7D1FF044614
:104A2C0008B1204638BDD5F81012D5F80002FFF7B2
:104A3C0034FA04460028F4D120220021D5F81402BF
:104A4C00FFF70AF90B22D5F81812D5F81402FFF764
:104A5C00F9F8D5F80032012283F80422E1E7F8B521
:104A6C0001292DD904460D46D0F814328B4229D990
:104A7C00002709E00133C4F8103294F8053243F0F2
:104A8C00010384F805323546D4F81432AB421AD9F6
:104A9C0029462046FFF7C0FC0646A0B1012814D0D9
:104AAC00B0F1FF3F13D0002229462046FFF77EFDD0
:104ABC00074640B9D4F81032B3F1FF3FDAD1E2E740
:104ACC00022700E002273846F8BD0227FBE7012742
:104ADC00F9E7000010B584B001900091144604A8C9
:104AEC0040F8041DFFF77EF900281ADB0F4B53F832
:104AFC00203013B1002283F80022019B13B1002255
:104B0C0083F80022094A42F8203063B1012C02D00C
:104B1C00002004B010BD0022694601A8FFF744FA3A
:104B2C00F7E70B20F5E70020F3E700BF9400002027
:104B3C002DE9F043ADF50D7D0191002800F0B0801A
:104B4C00044615460023C0F8003202F01F0802F09C
:104B5C001E0201A985A8FFF727FA064620B13046A8
:104B6C000DF50D7DBDE8F08302AB8B93019905A883
:104B7C00FFF7E2FE8A9F064608B9002F40D015F0D9
:104B8C001C0F7DD0002E42D0042E3BD048F00808DC
:104B9C008A9F16B918F0080F44D15EB918F0080FA7
:104BAC0001D048F02008859BD3F82C32C4F81C3275
:104BBC00C4F82072002ED2D184F806824FF000087F
:104BCC0084F80782859D39462846FFF766F8C4F8B5
:104BDC001002FA7FBB7F1B0443EA02637A7F43EA2D
:104BEC0002233A7F1343C4F80C32C4F80882C4F889
:104BFC001882C4F80052B5F80632A4F80432AEE7B5
:104C0C000626BCE705A8FFF705FF0646BEE7FB7ABC
:104C1C0013F0110F04D115F0040FBAD00826B8E721
:104C2C000726B6E70025BD73FD73C4233B744623EA
:104C3C007B74FD723D777D77BD77FD77394685981E
:104C4C00FFF72BF8814629463846FFF737F8859849
:104C5C00012380F80432B9F1000F9ED0D0F82C5209
:104C6C004946FFF7FCFE0646002896D1859809F1C7
:104C7C00FF33C0F80C322946FFF70FF906468CE7D4
:104C8C00002E8AD1FB7A13F0100F07D115F0020F0A
:104C9C0083D013F0010F80D007267EE704267CE733
:104CAC0009265CE72DE9F04F83B00446884616468A
:104CBC0099460023C9F80030FFF754F901900028F9
:104CCC0040F0F48094F80732002B40F0EE8094F81A
:104CDC00063213F0020F00F0ED80D4F80832F342E4
:104CEC0074D3002672E00021FFF7F3FC034686E044
:104CFC00D4F81412FFF7EDFC034680E0022384F88D
:104D0C0007320193D2E0012384F807320193CDE0FE
:104D1C00D4F800020123D4F81822214690F801029D
:104D2C00FEF75CFF30B994F8063223F0400384F8A8
:104D3C0006327AE0012384F807320193B6E00223AD
:104D4C0084F807320193B1E0D4F81812A1EB0A01F0
:104D5C00A94201D36D022DE04FF4007208EB412102
:104D6C002046FEF76FFF94F8063223F0400384F8D8
:104D7C000632EFE7D4F81832534505D0D4F80822A0
:104D8C00D4F80C329A4273D3C4F818A2D4F808029F
:104D9C00C0F30800C0F50075AE4200D235462A4675
:104DAC0041462044FEF74EFF94F8063243F0400390
:104DBC0084F80632A844D4F808322B44C4F80832DC
:104DCC00D9F800302B44C9F80030761B002E5DD08A
:104DDC00D4F80832C3F30802002AD7D1D4F8000261
:104DEC0090F80272013FFFB217EA532717D1002B3C
:104DFC007FF47EAFD4F81032002B3FF474AF002B4D
:104E0C0044D0012B3FF47AAFB3F1FF3F3FF47BAFBB
:104E1C00C4F81432D4F810220AB9C4F8103294F839
:104E2C00063213F0400F7FF473AFD4F800B2D4F80D
:104E3C0014125846FFF7E1FA824600283FF47FAF80
:104E4C00BA44750A96D07B199BF80222934200D97A
:104E5C00D51B2B46524641469BF80102FEF7BEFE7F
:104E6C0000283FF471AF012384F8073201931DE051
:104E7C000123524621469BF80102FEF7A5FE0028AD
:104E8C0082D0012384F8073201930FE0D4F8083262
:104E9C00D4F80C22934201D9C4F80C3294F806329F
:104EAC0043F0200384F8063200E00193019803B02C
:104EBC00BDE8F08F07230193F8E738B50446FFF7F8
:104ECC0051F8034608BB94F8062212F0200F1CD0B0
:104EDC0012F0400F11D0D4F800020123D4F818229C
:104EEC00214690F80102FEF779FE002841D194F892
:104EFC00063223F0400384F80632D4F81C12D4F89E
:104F0C000002FEF7CAFF034608B1184638BDD4F8B4
:104F1C002052EB7A43F02003EB7294F80C322B778F
:104F2C00B4F80C321B0A6B7794F80E32AB7794F80A
:104F3C000F32EB77D4F810122846FEF7BFFE002391
:104F4C00AB75EB75C4222A7646226A76AB74EB7489
:104F5C0094F8063223F0200384F80632D4F8003299
:104F6C00012283F80422D4F80002FFF7E5F9034686
:104F7C00CBE70123C9E70000F0B58BB000250895FD
:104F8C00254CA36943F00403A361A36903F0040354
:104F9C000193019BA36943F00403A361A36903F08C
:104FAC0004030293029BA36943F00403A361A36966
:104FBC0003F004030393039BA36943F00803A36169
:104FCC00A36903F008030493049B20230693022790
:104FDC0007970323099306A91048FBF7C7FC402346
:104FEC000693079508950E4E06A93046FBF7BEFCB6
:104FFC00802306930797089506A93046FBF7B6FC65
:10500C00A36943F48053A361A36903F4805305930C
:10501C00059B0BB0F0BD00BF00100240000C01401E
:10502C000008014008B50F48FDF78FFF00B108BD1F
:10503C00FFF7A2FF0B480823C3610123436102233E
:10504C00036100238362C360836003624FF4827246
:10505C0042604FF4007282614362034B0360FDF7C0
:10506C0077FFE4E7D81E00200030014008B5034864
:10507C00FDF739FEFFF7D6FF08BD00BFD81E002094
:10508C0000B583B04FF47A73009313460A46014679
:10509C000448FDF73EFE10B903B05DF804FBFFF7C2
:1050AC00E5FFF9E7D81E002008B5FFF7E9FF08BDBA
:1050BC0000B585B08DF8070001220DF10F010DF13F
:1050CC000700FFF7DDFF9DF80F0005B05DF804FB4E
:1050DC0010B5FFF7A7FF012220210648FBF7A0FD22
:1050EC00002404E0FF20FFF7E3FF0134E4B2092CB5
:1050FC00F8D910BD000C014010B50824FF20FFF7B3
:10510C00D7FF013CE4B2FF2801D1002CF6D110BD31
:10511C0070B584B004469DF82050344E3068206041
:10512C003079207141F040018DF80810110E8DF886
:10513C000910C2F307418DF80A10C2F307218DF84C
:10514C000B108DF80C2043F001038DF80D3000226C
:10515C0020212748FBF764FD0622694602A8FFF7C9
:10516C00A3FF052D07D8DFE805F00309242C062C36
:10517C00FFF7C2FF2070204604B070BDFFF7BCFFE4
:10518C002070FF20FFF794FF6070194D0122202141
:10519C002846FBF745FD0120FBF724F800222021CF
:1051AC002846FBF73DFDFF20FFF782FFFF28FAD1D1
:1051BC00E1E7FFF7A1FF2070FF20FFF779FF607098
:1051CC00D9E7FFF799FF2070FF20FFF771FF6070A0
:1051DC00FF20FFF76DFFA070FF20FFF769FFE07065
:1051EC00FF20FFF765FF2071C5E700BF10740008B2
:1051FC00000C014070B588B000238DF817309DF875
:10520C0017300133DBB28DF8173000210091952354
:10521C000A4606A8FFF77CFF012220216548FBF710
:10522C00FFFCFF20FFF744FF9DF81730DBB2632B28
:10523C0000F2B8809DF81840012CE0D105230093B2
:10524C0087234FF4D57208210DEB0100FFF760FFA7
:10525C0002980690012220215648FBF7E1FCFF2022
:10526C00FFF726FF9DF8186016F0040F28D00024D5
:10527C000094FF232246372102A8FFF749FF4D4D2A
:10528C00012220212846FBF7CBFCFF20FFF710FF63
:10529C000094FF232246292102A8FFF739FF029828
:1052AC000690012220212846FBF7BAFCFF20FFF7CD
:1052BC00FFFE9DF81830012BD9D03F4B1C8072E0BB
:1052CC00012E70D100240094FF232246372102A81E
:1052DC00FFF71EFF374D012220212846FBF7A0FCCB
:1052EC00FF20FFF7E5FE0094FF234FF080422921B9
:1052FC0002A8FFF70DFF02980690012220212846F4
:10530C00FBF78EFCFF20FFF7D3FE9DF81830012B26
:10531C00D8D013F0040F29D000220092FF2337219C
:10532C0002A8FFF7F5FE02980690012220212148E1
:10533C00FBF776FCFF20FFF7BBFE9DF81830012B26
:10534C0034D100220092FF23292102A8FFF7E0FEAE
:10535C0002980690012220211648FBF761FCFF20E1
:10536C00FFF7A6FE9DF81830012BD5D00323009330
:10537C00FF2300223A2102A8FFF7CAFE02980690EA
:10538C00012220210B48FBF74BFCFF20FFF790FE7E
:10539C009DF8184064B99DF81930C3F38013064A80
:1053AC00138000E00124204608B070BD3446FAE7B3
:1053BC003446F8E7000C01409C00002038B5054647
:1053CC004FF6FF74FF20FFF773FE013CA4B2A84216
:1053DC0001D0002CF6D10CB1002038BD0220FCE726
:1053EC0010B5FF20FFF764FE0446FF20FFF760FEB8
:1053FC0004F01F000B2819D00D2815D0052801D05A
:10540C00FF2010BD0A4C012220212046FBF708FC8E
:10541C00002220212046FBF703FCFF20FFF748FE6B
:10542C00FF28FAD10520ECE70D20EAE70B20E8E78E
:10543C00000C014070B588B0054600220092FF2395
:10544C00092102A8FFF764FE9DF808305BB1012624
:10545C00012220218448FBF7E3FBFF20FFF728FE05
:10546C00304608B070BDFE20FFF7A8FF064608B90D
:10547C0000240AE00126EBE7FF20FFF719FE08AB3A
:10548C00234403F8100C0134A4B20F2CF4D9FF20E0
:10549C00FFF70EFEFF20FFF70BFE9DF81020910981
:1054AC002B7861F3010362F387032B709DF81130A5
:1054BC006B709DF81230AB709DF81330EB709DF84B
:1054CC0014309DF815100A0942EA0312AB8862F3F6
:1054DC000B03AB80C3F3072361F307136B719DF8C8
:1054EC001630D909AA7961F30002C3F3801161F374
:1054FC004102C3F3401161F38202C3F3001161F363
:10550C00C302AA71594A1288002A40F08E80C3F354
:10551C0081012A7A61F301022A729B0203F440632F
:10552C009DF8172043EA82039DF8182043EA921352
:10553C00298963F38D012981C2F3C201AB7A61F32E
:10554C00020362F3C503AB729DF819305909EA7A6C
:10555C0061F30202C3F3820161F3C502EA725B00DC
:10556C0003F006039DF81A2043EAD2132A7B63F357
:10557C0002022A739DF81A30C3F380112A7C61F35E
:10558C0000025B0003F07E039DF81B1043EAD1136D
:10559C0063F347022A746A7C61F306029DF81C309F
:1055AC00D90961F3C7126A74C3F34111AA7C61F380
:1055BC000102C3F3820161F38402AA749B0003F01D
:1055CC000C039DF81D1043EA9113EA7C63F303026C
:1055DC00C1F34010134660F30413EB742B7D61F39D
:1055EC0004039DF81E20D10961F34513C2F3801109
:1055FC0061F38613C2F3401161F3C7132B75C2F329
:10560C0000116B7D61F30003C2F3810161F342036E
:10561C0062F3C4036B759DF81F205108AB7D61F3D9
:10562C00060362F3C713AB7512E79B0003F03C0350
:10563C009DF8172043EA9213297A63F30501297226
:10564C00130403F47C139DF8182043EA02239DF8FD
:10565C0019201343AA6863F39B12AA60C2F3076272
:10566C006FF30412EA7285E7000C01409C000020E5
:10567C0070B588B0054600220092FF230A2102A8CB
:10568C00FFF746FD9DF808305BB101260122202171
:10569C003948FBF7C5FAFF20FFF70AFD304608B082
:1056AC0070BDFE20FFF78AFE064608B9002409E00B
:1056BC000126EBE7FF20FFF7FBFC08AB234403F8C4
:1056CC00100C01340F2CF5D9FF20FFF7F1FCFF2053
:1056DC00FFF7EEFC9DF810302B709DF811301B027B
:1056EC006B806A889DF8123013436B809DF81330E1
:1056FC001B066B606B689DF8142043EA02436B60D9
:10570C006B689DF8152043EA02236B606B689DF86B
:10571C00162013436B609DF817302B729DF81830D0
:10572C006B729DF819301B06EB60EB689DF81A2024
:10573C0043EA0243EB60EB689DF81B2043EA02232B
:10574C00EB60EB689DF81C201343EB602A7C9DF802
:10575C001D3042EA13122A741B0203F470636B822D
:10576C006A8A9DF81E3013436B829DF81F305B08CC
:10577C002B7501236B7589E7000C014008B5FFF709
:10578C00A7FC034B01221A70FFF734FD08BD00BFC4
:10579C009A0000202DE9F04F89B083468A46904646
:1057AC0003921C4600230093FF23102106A8FFF749
:1057BC00AFFC012220213048FBF732FAFF20FFF723
:1057CC0077FC9DF818608EB100270126012220215C
:1057DC002948FBF725FAFF20FFF76AFC17B138467A
:1057EC0001F0D8F9304609B0BDE8F08F039D28468A
:1057FC0001F0C8F90746002838D02A46FF2101F0ED
:10580C00DCF9002526E0424600230093FF23B1FB80
:10581C00F2F2112104A8FFF77BFC0498C0B238BB4C
:10582C00FE20FFF7CBFD28BB039A0BEB0501384696
:10583C00FFF73AFC4544FF20FFF73AFCFF20FFF747
:10584C0037FC012220210C48FBF7EAF9FF20FFF777
:10585C002FFC4C4604F1FF39002CB7D005EB0A01A4
:10586C00064B1B88012BCED00122CDE70126ADE7DC
:10587C000126ABE70126A9E7000C01409C000020A3
:10588C002DE9F04F89B082468946904603921D4619
:10589C0000230093FF23102106A8FFF739FC0122F7
:1058AC0020213248FBF7BCF9FF20FFF701FC9DF8E3
:1058BC00186066B10126012220212C48FBF7B0F9B3
:1058CC00FF20FFF7F5FB304609B0BDE8F08F0398D9
:1058DC0001F058F9834600283BD000242FE04246C3
:1058EC0000230093FF23B1FBF2F2182104A8FFF769
:1058FC000FFC0498C0B2A0BBFF20FFF7D9FBFF2020
:10590C00FFF7D6FBFE20FFF7D3FB039A59460AEBB1
:10591C000400FFF7C9FB4444FF20FFF7C9FBFF203D
:10592C00FFF7C6FBFFF75CFD05281CD101222021E7
:10593C000E48FBF775F9FF20FFF7BAFB3D466F1ECB
:10594C0045B104EB09010A4B1B88012BC7D001227E
:10595C00C6E70126BBF1000FADD0584601F01AF98D
:10596C00A9E70126F6E70126F4E700BF000C014089
:10597C009C00002038B50446FFF75CFD054604F199
:10598C001800FFF775FE2843C0B2104B1B88012B83
:10599C0011D02389C3F38B030133227B02F007025E
:1059AC00023293406279110901228A40626302FB40
:1059BC0003F3236338BD4FF400736363A368C3F32D
:1059CC00951301335B022363F4E700BF9C000020B6
:1059DC0000B585B002230093FF2300220D2102A8FD
:1059EC00FFF796FB012220210848FBF719F9FF204D
:1059FC00FFF75EFB9DF8083023B99DF8090010B144
:105A0C00012000E0012005B05DF804FB000C014012
:105A1C0000B585B000230193029303932B482C4AC5
:105A2C0002604FF480728260C36043614FF40022C5
:105A3C00C261436005230361FAF732FD002832D1BD
:105A4C0000230193012302930223039301A91F480E
:105A5C00FAF764FC50BB012301930223029301A9C2
:105A6C001A48FAF75BFC20BB022301930323029331
:105A7C0001A91648FAF752FCF0B903230193042349
:105A8C0002930DEB03011148FAF748FCB8B9042353
:105A9C0001930523029301A90C48FAF73FFC88B93E
:105AAC0005B05DF804FB00F086FDC9E700F083FD4E
:105ABC00D1E700F080FDD7E700F07DFDDDE700F0D9
:105ACC007AFDE4E700F077FDEAE700BFB8000020BC
